:1000000000000420B5020000DD020000DF02000055
:10001000E1020000E3020000E50200000000000031
:10002000000000000000000000000000E7020000E7
:10003000E902000000000000EB020000ED020000F9
:10004000EF020000EF020000C51C0000EF020000FC
:10005000EF020000EF020000EF020000EF020000DC
:10006000EF020000EF020000EF020000EF020000CC
:10007000EF020000251D0000EF020000EF0200006B
:10008000EF020000EF020000EF020000EF020000AC
:10009000EF020000EF020000EF020000EF0200009C
:1000A000EF020000EF020000EF020000EF0200008C
:1000B000EF020000EF02000000000000000000005E
:1000C000EF020000EF020000EF020000EF0200006C
:1000D000EF020000EF020000EF020000EF0200005C
:1000E000EF020000EF020000856600000000000043
:1000F00000000000EF02000000000000EF0200001E
:1001000000000000000000000000000000000000EF
:1001100000000000000000000000000000000000DF
:1001200000000000000000000000000000000000CF
:1001300000000000000000000000000000000000BF
:1001400000000000000000000000000000000000AF
:10015000000000000000000000000000000000009F
:10016000000000000000000000000000000000008F
:10017000000000000000000000000000000000007F
:10018000000000000000000000000000000000006F
:10019000000000000000000000000000000000005F
:1001A000000000000000000000000000000000004F
:1001B000000000000000000000000000000000003F
:1001C000000000000000000000000000000000002F
:1001D000000000000000000000000000000000001F
:1001E000000000000000000000000000000000000F
:1001F00000000000000000000000000000000000FF
:1002000010B5054C237833B9044B13B10448AFF350
:1002100000800123237010BD200200200000000098
:1002200068E8000008B5034B1BB103490348AFF36E
:10023000008008BD000000002402002068E80000E3
:10024000154B002B08BF134B9D46A3F5803A0021A8
:100250008B460F461348144A121A0AF0ACFF0F4B94
:10026000002B00D098470E4B002B00D09847002061
:10027000002104000D000D48002802D00C48AFF307
:1002800000800AF021FF2000290002F07BFD0AF027
:1002900007FF00BF0000080000000420000000006D
:1002A0000000000020020020AC310020000000000F
:1002B000000000000649074A074B9B1A03DD043B78
:1002C000C858D050FBDC02F00DFEFFF7B9FF00006C
:1002D000FCE800000000002020020020FEE7FEE70E
:1002E000FEE7FEE7FEE7FEE7FEE7FEE7FEE7FEE7E6
:1002F00000B585B000230390194601AA44F201001D
:10030000CDE9013300F004F805B05DF804FB00BF4F
:1003100010B572B601F0F2FA01F0B0FA0028FBD184
:10032000104B114C1149E41AE408240444F0010074
:1003300001F00CF80E4B1B68DB0700D500BE44F043
:1003400002000C4901F002F8BFF34F8F0A490B4B32
:10035000CA6802F4E0621343CB60BFF34F8F00BF63
:10036000FDE700BF88E80000A8E800001CB200001C
:10037000F0ED00E028B2000000ED00E00400FA0516
:1003800072B6024A13680133136070473C020020C2
:10039000034A1368013B136003B962B6704700BF9C
:1003A0003C0200200A4830B400220125510902F025
:1003B0001F0350F8214005FA03F301322343C02AFA
:1003C00040F82130F2D1034B1D70002030BC704743
:1003D000400200205802002050E8002F0B4640E861
:1003E000003C9CF0000FF7D11046704750E8003FEA
:1003F00003EB010240E8002C9CF0000FF6D1104600
:10040000704700BF50E8003FA3EB010240E8002C1A
:100410009CF0000FF6D11046704700BF012350E852
:10042000002F42EA030C40E800C191F0000FF6D122
:1004300060467047002350E800CF0CEA030240E812
:10044000002191F0000FF6D160467047B8B130B48A
:10045000D0E90112521A0468D2B2531E2160DBB2F5
:1004600042B101680A685C1E551C0D601370E3B24E
:10047000FF2BF6D103680020187130BC70470E20A6
:10048000704700BF38B504460020FFF779FFD4E974
:1004900000311A688A4215D9511E19602168A36873
:1004A0000868258A12F8012CE4681B1A0879DBB267
:1004B000984205FB024400D20B710020FFF768FF51
:1004C000204638BD0024F8E738B5054600200C4624
:1004D000FFF756FF2A681368591C1160E9682A8AD9
:1004E000641AB4FBF2F41C700020BDE83840FFF73A
:1004F0004FBF00BF826842B110B50446436901682E
:10050000006998470023A36010BD70470EB400B582
:1005100082B0039929B102AA04AB42F8043D00F06D
:10052000A9F802B05DF804EB03B070472DE9F04F75
:10053000924683B051450F4605461E46DDE90CB292
:10054000C0F092800B464FF00108B3FBFAF39A45D6
:1005500008F10108F9D9B04538BFB04612F00109D9
:10056000A96802D1BBF1000F54D1012402E0013E81
:100570000AFB04F4012EFAD8B7FBF4F08245F7D950
:100580003B4E02E0A968B7FBF4F0335C2A680A2B03
:1005900004FB107702EB010E01F1010029D0A860E5
:1005A0008EF80030D5E90131994202D32846FFF791
:1005B000A1FFB4FBFAF4002CE4D1B9F1000F15D07F
:1005C000BBF1000F12D0C34510D92024AB682A68B4
:1005D000591CA960D454D5E901329A420BF1FF3B72
:1005E00014D2BBF1000F01D0C345EFD103B0BDE879
:1005F000F08FA8604FF00D005054D5E901108842EB
:100600001DD2296801EB000E0130C8E72846FFF72C
:1006100071FFE6E7930722D42024C345A5D92B68B0
:100620004A1CAA605C54D5E9013199420BF1FF3BA9
:1006300010D2BBF1000F98D0C345F0D195E7284602
:100640000193FFF757FFAA682968019B501C01EB33
:10065000020EA4E72846FFF74DFFA968E9E7002E40
:100660000CBF30242024D8E74FF0010873E700BF07
:1006700044B20000002900F0B9822DE9F04F054690
:1006800087B091460C460E78DFF8C8A64FF00D0BE8
:1006900013E0AB6828680A2E03F1010200EB0301A6
:1006A00000F04B82AA600E70D5E901329A4280F0C8
:1006B0001B812678002E00F01E810134002E00F0F0
:1006C0001A81252EE5D12346002713F8012B2D2A68
:1006D00000F0E380302A00F0E4802B2A00F0D48080
:1006E0002A2A00F00D81A2F13006F1B2092903D9BE
:1006F0007DE2A1F130060346184606EB860110F8AC
:10070000012BA2F13004092C02EB4101F1D92E2A70
:1007100000F002814FF00008013301E013F8012BD3
:1007200002F0FB0168291C46F8D0253A532AC0D8AC
:1007300001A353F822F000BF230B0000B306000012
:10074000B3060000B3060000B3060000B3060000C5
:10075000B3060000B3060000B3060000B3060000B5
:10076000B3060000B3060000B3060000B3060000A5
:10077000B3060000B3060000B3060000B306000095
:10078000B3060000B3060000B3060000B306000085
:10079000B3060000B3060000B3060000B306000075
:1007A000B3060000B3060000B3060000B306000065
:1007B000B3060000B3060000B3060000B306000055
:1007C000B3060000B3060000B3060000B306000045
:1007D000B3060000B3060000B3060000B306000035
:1007E000B3060000B3060000B3060000B306000025
:1007F000B3060000B3060000B3060000B306000015
:10080000B3060000070B0000B3060000B3060000AB
:10081000B3060000B3060000B3060000B3060000F4
:10082000B3060000B3060000B3060000B3060000E4
:10083000AB0800008D0A0000B3060000B3060000FC
:10084000B3060000B30600008D0A0000B3060000E6
:10085000B3060000B3060000B3060000B3060000B4
:10086000B3060000F5090000B3060000B30600005F
:100870006D090000B306000051090000B306000036
:10088000B3060000070B000047F004071C46234690
:1008900013F8012B2D2A7FF41DAF47F001071C46EA
:1008A000F5E747F002071C46F1E7D9F800301A1DBA
:1008B000C9F800201E78AB680A2E0CD12A68591C92
:1008C000A96002F803B0D5E90123934203D3284677
:1008D000FFF710FEAB682A68591CA960D654D5E909
:1008E00001329A42FFF4E5AE2846FFF703FE267870
:1008F000002E7FF4E2AE2B7B23BB07B0BDE8F08F68
:10090000D9F80020111DC9F80010166862782E2A47
:1009100004F102007FF4FEAE5A78A2F13003092BF5
:1009200000F2BD814FF0000808EB880802EB480890
:1009300010F8012FA2F13003092BA8F13008F3D9E8
:100940000346E9E6284607B0BDE8F04FFFF7D2BD01
:10095000D9F800301A1DC9F80020196801974346DC
:1009600000960A222846FFF7E1FDA2E6D9F80030FA
:100970001A1DC9F80020D3F80080FB0700F1E880B9
:10098000B8F1000F00F0A18140460AF024FC0746B0
:10099000BE4215D9A6B1202100E08EB1AA682B680D
:1009A000501CA8609954D5E901329A4206F1FF36ED
:1009B00004D328460391FFF79DFD0399BE42ECD175
:1009C00008F1FF3818F8016F002E3FF472AEAB68E3
:1009D00028680A2E03F1010200EB030100F0908168
:1009E000AA600E70D5E901329A42EBD32846FFF790
:1009F00081FDE7E7D9F80020131DC9F80030AB6886
:100A000029681768581C3022A860CA54D5E9012308
:100A1000934280F0E6802A68581C7821A860D1545F
:100A2000D5E90123934280F0D7800F2F03D93A46AE
:100A300012090F2AFCD84FF080560DE0AA6081F809
:100A40000080D5E901329A4202D32846FFF752FDD1
:100A500036093FF42EAEAB68B7FBF6F21AF8028007
:100A60002868B8F10A0F06FB127700EB030103F1C7
:100A70000102E3D1AA6000F803B0D5E901329A423D
:100A800080F049812B6899180132D7E7D9F80030F6
:100A90001A1DC9F80020196881EAE173A3EBE1731C
:100AA000092B40F30E81AA480122A0FB03C3DB08F7
:100AB000092B02F10102F8DC4245134638BF4346D8
:100AC000039307F00203002E40F09580002B00F006
:100AD000B780B8F1000F00F0F680F80740F1B08061
:100AE0000029C0F2FF807A0700F1C88007F00303F5
:100AF000022B00F0A780CDE9006743460A22284672
:100B0000FFF714FDD5E5D9F800301A1DC9F800200B
:100B1000196801974346009610222846FFF706FD04
:100B2000C7E5AB682A68581C2521A860D154D5E9CF
:100B300001329A42FFF4BDADD6E6AA6000F803B0D8
:100B4000D5E901329A423FD2296811440132A9E520
:100B50004146A1EB080311F8017BD7B1AB68D5F88A
:100B600000C00A2F03F101020CEB030000F0AF807C
:100B7000AA600770D5E901329A42EAD32846039168
:100B8000FFF7B8FC0399A1EB080311F8017B002FD4
:100B9000E4D19E427FF68DAD202702E0002E3FF487
:100BA00088ADA9682A68481CA8605754D5E9012176
:100BB000914206F1FF3604D328460393FFF79AFCCF
:100BC000039BB342EAD174E52846FFF793FCAB6878
:100BD00029685A1C194465E52846FFF78BFCAB6869
:100BE00023E72846FFF786FCAB6814E770471846F2
:100BF000002623468BE5002920DB7A071ED41BB193
:100C0000B8F1000F3FF46CAFF8073FF569AFBEB124
:100C1000039BB342BFF464AF2023AA68501CA860B2
:100C200028688354D5E90102824206F1FF3640D29A
:100C300036B1039AB242F0D1164651E7013EDEE7E3
:100C400000264DE7B8F1000F7FF455AF002E6AD0B3
:100C5000039BB342BFF44FAF3023AA68501CA86077
:100C600028688354D5E90102824206F1FF3618D282
:100C7000002E58D0039AB242EFD13CE7AA68531C29
:100C8000AB602B682B209854D5E901329A42FFF4CF
:100C90002DAF28460491FFF72DFC049926E7034663
:100CA00038E52846CDE90413FFF724FCDDE90413F9
:100CB000DEE72846CDE90413FFF71CFCDDE9041349
:100CC000B6E70122F8E646460AE7474660E6AA602C
:100CD0000CF803B0D5E901329A4226D22B68981855
:100CE000013245E7AA68531CAB602B682D2098544D
:100CF000D5E901329A42C1F10001FFF4F7AEC8E72D
:100D0000AA6000F803B0D5E901329A4217D22968E7
:100D10001144013264E62846FFF7ECFBA9682B6812
:100D20004A1C19448AE60026E5E628460391FFF7A7
:100D3000E1FBA8682B680399421C184418E7284671
:100D4000FFF7D8FBAB6829685A1C194448E600BF76
:100D5000CDCCCCCC44B20000FFF778BB2DE9F041FC
:100D6000058ACE1C043D2E440746B6FBF5F6FFF778
:100D700089FB78B3F6B24FF48073013E0446C58018
:100D80000760838027D08046002509E06379AE4262
:100D900003F101036371C8F80000076080461AD0B0
:100DA0003846FFF76FFB01350028EFD16679721ED8
:100DB00014D02346013082421B68FBD11F684EB11C
:100DC000002523682146013538461C46FFF77CFB89
:100DD000AE42F6D100242046BDE8F0812768EFE757
:100DE00004300121FFF702BBF8B5012104460430AD
:100DF000FFF708FBC0B200B1F8BD6679721E12D0D1
:100E00002346013082421B68FBD11F68002EF3D0BD
:100E1000002523682146013538461C46FFF754FB60
:100E2000AE42F6D1F8BD2768F2E700BF2DE9F843DE
:100E3000C788467907FB06F6043E02EB030C04461E
:100E4000664503F1040015468846B0FBF7F238BF4B
:100E5000F51A07FB120012B1013A2468FCD13E1AC0
:100E6000AE4228BF2E469DB14FF000090430AD1BA5
:100E70002044324608EB09010AF079F9AF42B14447
:100E800024683E464FF0000028BF2E46002DEDD1CD
:100E9000BDE8F8832DE9F843C7884679154607FB76
:100EA00006F6043E05EB030C1A1D6645044688460B
:100EB000B2FBF7F038BFF51A07FB102110B101386B
:100EC0002468FCD17E1AAE4228BF2E469DB14FF059
:100ED000000904312144AD1B324608EB09000AF039
:100EE00046F9AF42B14424683E464FF0000128BFA6
:100EF0002E46002DEDD1BDE8F88300BF82680023A7
:100F0000936082681361826853618268D3608268EB
:100F10005360826813607047704700BF00B583B0AC
:100F2000044B0093044A402300F036F803B05DF808
:100F300004FB00BF3D0F00005C02002002B32DE95E
:100F4000F843114B114E8846144643F0010903271C
:100F50000025224608EB0501002002F0F9FD0346BA
:100F60001D444FF47A40E41A23B9337833B1C847AB
:100F7000013F06D001233370002CEAD1BDE8F8838D
:100F800070473770BDE8F88360B200005902002056
:100F9000704700BF02F090BEF0B595B00024154632
:100FA0000F4608461E46FFF71BFF384623460895A6
:100FB000082205A91A9D09960D950A948DF82C40D2
:100FC0000C94FFF767FF9DF814308DF81140DDE9B0
:100FD000061003F00302012ACDE9020127D0022AFC
:100FE00004D03846FFF700FF15B0F0BDBDF816502D
:100FF000C3F3C2038DF81030AD090826082D2C4626
:1010000028BF0824334622460EA93846FFF742FF80
:101010002D1B214608AB02AA0EA8264400F02AFD8B
:10102000002DEBD13846FFF7DFFE15B0F0BDBDF85F
:101030001460059DC6F38316C3F3C204B2000EA963
:10104000384608238DF81040C5F39525FFF722FF99
:1010500008AB324628460EA9009302AB00F064FCB0
:101060003846FFF7C1FE15B0F0BD00BF704700BFA6
:1010700000B583B0044B0093044A4023FFF78CFF74
:1010800003B05DF804FB00BF91100000A002002037
:1010900038B50E480E4D03780E4CEB5C0025D2B2ED
:1010A000257053B90C3001F0A1F858B90A4B1B78E0
:1010B00013B12378002BFCD038BD043001F00EFBB7
:1010C0000028F3D0FFF714F9F0E700BF000000207C
:1010D00014310020E00200209C02002070B513486B
:1010E000134A0378D35C88B0DBB90C3001F000F808
:1010F000104D0FCD6C460FC495E80F0008AD0626C5
:1011000045F8206D84E80F0029460022074800F0CA
:1011100095FD08B1FFF7ECF8074B00221A7008B0F4
:1011200070BD043001F05AFAE2E700BF0000002071
:101130001431002074B200009C02002070B50D4DE7
:101140000FCD88B06C460FC495E80F0008AD062699
:1011500045F8206D84E80F0029460022064800F07B
:101160006DFD08B1FFF7C4F8044B00221A7008B0F7
:1011700070BD00BF74B20000000000209C0200207F
:1011800038B50A4DFFF706FF0421284600F082FB20
:10119000074B01245C71FFF7D1FF05F1100004211A
:1011A00000F078FB034B5C7138BD00BFC0E8000065
:1011B000140000201C000020F0B5324C85B004F56E
:1011C0008360FFF72BF904F21440FFF727F9D4E905
:1011D000013703EA0702D01C04EB800114F8200059
:1011E00010F0040044D003F1020C0E7806F0030660
:1011F000012E654635D0022E02F1030621D004EB04
:1012000086010028F1D104EB82020133D2680192F9
:101210003B4004EB830302F00302012ADE6829D07D
:10122000022A23D1BDF806309B090333360C05EBA7
:1012300093051548FFF7FEF800B16560304605B02C
:10124000F0BD4B880CEB931307EA0302D11C03F1AA
:10125000020C14F82100654604EB810100F0040043
:10126000CFE70B88C3F383136344EDE70026E0E781
:101270009D1CC8E7BDF80430C3F38313360C1D442E
:10128000D7E700BFB4030020C80700200B4B0C4871
:1012900010B50022FF2401219C60C3F8182483F8B4
:1012A0002014C3E90022C3F81424FFF755FD0446B7
:1012B00010B90448FFF722FE204610BDB4030020F9
:1012C000E0E80000C4B2000021B9124B03EBC000FB
:1012D00000687047104A0F49521AD20815D030B42E
:1012E0000E4D2B88834212D0002303E035F82340B3
:1012F000844205D001339A42F8D1002030BC7047B7
:1013000001EBC300006830BC7047104670470846C8
:10131000F8E700BF88E80000C0E8000020020020D5
:10132000094B013903EBC00003290BD8DFE801F0BA
:101330000208060402207047407970470079704720
:10134000042070470020704788E800002DE9F8432A
:10135000DFF8D890074600208846D9F80840FFF704
:101360000FF8D9E90132D9F80060134401339B1B0F
:10137000012B56D809F21C4501212846FFF736F803
:10138000FFF71AFF01462846FFF730F8D9E9013286
:10139000D9F80010134401335B1A012BECD90A4031
:1013A000033205230231002049F82230C9F8001029
:1013B000FEF7EEFF00211C48FFF70EF880F3100047
:1013C000731C234009EB830300043440033440EAD8
:1013D0001740D86019F8243067F3C50309F82430A2
:1013E00039F824306FF3891329F8243059F8242070
:1013F00068F39F221346012161F301036FF3820317
:1014000049F8242009F8243099F820341BB906E063
:1014100000F00EF818B1D9E900329A42F8D1BDE8CF
:10142000F8833146BBE700BFD0070020B40300209B
:101430002DE9F047914C002384B0C4F81834BFF371
:101440004F8FD4E9015605EA0602D31C04EB830151
:1014500014F82330580719D527680B7803F00303D5
:10146000012B43D0022B03D14B88023505EB93159A
:1014700006EA0502D4F81804D31C04EB830128B94A
:10148000AF4239D914F823305B07E6D404EB82026B
:101490006B1CD2680192334004EB830302F0030219
:1014A000DB680293022A05F1020700F08980012A15
:1014B00026D0D4F810543DB12B6828469B68984735
:1014C000EB681D68002DF7D16D486E4B6E49C01A50
:1014D000C008000440F00200FFF738FFD4E90030F4
:1014E000C01A18BF012004B0BDE8F0870B88023590
:1014F000C3F383131D44BBE7676004B0BDE8F08706
:10150000BDF804206148C2F38313062B28BF0623CD
:1015100063F3891202339900ADF80420FFF71EFC33
:1015200080460028C5D0FFF75BFC0023082201A9F4
:101530004046FFF77BFCBDF8043013F4707F00F0E9
:101540009B806FF0010AAAEB050A082506EA07014D
:1015500003312B46042204EB81014046FFF766FC71
:10156000BDF8043007F101090AEB0902C3F3831344
:1015700093424F4605F10405E8D8D4F81834002BFF
:1015800064D1D4F8105465B1EB685A7928464146C5
:10159000002A57D02B681B689847EB681D68002D00
:1015A000F2D14046FFF720FC0020FEF7E9FED4F818
:1015B00018340BB9C4F804900020FEF7E9FE8DE75B
:1015C000BDF8063031484FEA93194D46502D28BFDB
:1015D000502565F38F1305F10801ADF80630FFF7CC
:1015E000BDFB804600283FF464AF26EA070A0AF1F3
:1015F000010AFFF7F5FB4FEA8A0A0023082201A936
:101600004046FFF713FC55452BD9EBB2BAF1000F5A
:1016100020D006EA0701A3EB0A03033104EB8101A2
:10162000DDB2524608234046FFF700FC2A460AF185
:10163000080317494046FFF7F9FB09F1030907EBD7
:1016400099099AE71D68002D9ED1AAE74046FFF749
:10165000CBFB43E72A4608230D494046FFF7E6FB4C
:10166000EBE706EA0701033104EB81012A46082370
:101670004046FFF7DBFBE0E7B9467EE7B403002016
:10168000A8E8000088E80000D0B20000E0E8000010
:10169000C00300202DE9F047DFF8E4A00746002052
:1016A00091468846DAF80840FEF76AFEDAE9013228
:1016B000DAF80060134401339B1B022B5CD80AF25A
:1016C0001C4501212846FEF791FEFFF775FD0146F6
:1016D0002846FEF78BFEDAE90132DAF800101344EF
:1016E00001335B1A022BECD90A4003320331452344
:1016F00000204AF82230CAF80010FEF749FEB31C59
:1017000023400AEB830300211C48C3F80C90FEF72A
:1017100063FE80F31000731C23400AEB8303000474
:101720003440033440EA1740D8601AF8243067F395
:10173000C5030AF824303AF82430012161F38913F3
:101740002AF824305AF8242068F39F22134661F3C4
:1017500001036FF382034AF824200AF824309AF830
:1017600020341BB906E0FFF763FE18B1DAE9003256
:101770009A42F8D1BDE8F0873146B5E7D00700209E
:10178000B40300202DE9F84F3A4C804600209346E0
:101790009A468946A568FEF7F3FDD4E90132276829
:1017A00013440133DB1B032B61D804F21C460121D7
:1017B0003046FEF71BFEFFF7FFFC01463046FEF702
:1017C00015FED4E901322168134401335B1A032B5F
:1017D000EDD90A40033204318523002044F8223039
:1017E0002160FEF7D5FDBA1CFB1C2A402B4004EB00
:1017F000820204EB830300211F48C2F80CB0C3F837
:101800000CA0FEF7E9FD80F310007B1C2B4004EBDD
:10181000830300043D40033540EA1840D86014F8C3
:10182000253068F3C50304F8253034F8253002224A
:1018300062F3891324F8253054F8252069F39F2298
:101840001346012161F301036FF3820344F825205D
:1018500004F8253094F820341BB906E0FFF7E8FDC2
:1018600018B1D4E900329A42F8D1BDE8F88F394670
:10187000AFE700BFB4030020D0070020044BD3E93A
:1018800000239A4201D0FFF7D3BD0020704700BF6C
:10189000B403002030B4184DD5F8104400215CB1D9
:1018A000E3681A798A4204D116E0DB681A798A4221
:1018B00012D01B68002BF8D1C3681971D5F8103409
:1018C00093B1DA68C36812681A60D5F81034DB681F
:1018D000186030BC0846704701310A29DFD14FF04B
:1018E000FF31084630BC7047C5F81004C268136069
:1018F000084630BC704700BFB403002038B5094B20
:10190000D3F81044012583F820544CB1E3685D718D
:10191000236820465B689847E3681C68002CF5D173
:1019200038BD00BFB40300202DE9F04784B01D4648
:101930000C9C002394F80C802373EB8881460E46A0
:101940001746002B40D1297A05290ED06B7AA8883A
:1019500073BB404B53F821A00021FFF7B5FC524662
:1019600003463D492046FEF7D1FD062F09D8DFE8A2
:1019700007F0046A4249525D330049462046FEF7AB
:10198000C5FD2B7A052B05D06B7A5BB93349204610
:10199000FEF7BCFD2046FEF7ADFD84F80C8004B0D8
:1019A000BDE8F0872E4A2F492046FEF7AFFDEDE750
:1019B000FFF7B6FC2C4B2B4953F820202046FEF7AE
:1019C000A5FD297AA888C4E7254A00922749284A14
:1019D0002046FEF79BFDB6E7D6E90410D6E90023C2
:1019E0000390D6E902070291CDE900074946204657
:1019F000FEF78CFDC5E74946D6E900232046FEF7F1
:101A000085FDBEE7B168D6E900232046009149462E
:101A1000FEF77CFDB5E7D6E90201D6E90023019186
:101A2000009049462046FEF771FDAAE7D6E903710A
:101A3000B068D6E900230291CDE900074946204667
:101A4000FEF764FD9DE7326849462046FEF75EFDDD
:101A500097E700BF58B300004CB3000038BF000048
:101A600040B3000048B30000E8B2000028B3000013
:101A700020B30000082900D970472DE9F04F1D461A
:101A8000904600232A7B2B7385B0B8F8063003926A
:101A900007460E46002B7BD198F80810052911D077
:101AA00098F80930B8F80400002B63D13C4B53F888
:101AB00021400021FFF708FC224603463949284609
:101AC000FEF724FDDFF8FCB0DFF8FC90002405E011
:101AD0003A5D0134FEF71AFD082C09D0A6424946AA
:101AE0002846F5D859460134FEF710FD082CF5D1EB
:101AF0002D49DFF8D8B0DFF8D8902846FEF706FD6C
:101B000000240CE017F804A0BAF17E0F23D92E228E
:101B1000494628460134FEF7F9FC082C08D0A642B5
:101B2000F0D8594628460134FEF7F0FC082CF6D1CF
:101B300098F80830052B02D098F80930A3B91B4952
:101B40002846FEF7E3FC2846FEF7D4FC039B2B73E4
:101B500005B0BDE8F08F09F0DBFA504452464378F7
:101B600013F0970FD3D0D3E7114A12492846FEF756
:101B7000CDFCE4E7FFF7D4FB0F4B0E4953F82020D0
:101B80002846FEF7C3FC98F80810B8F804008DE763
:101B9000074A009209490A4A2846FEF7B7FC7BE744
:101BA00058B300004CB3000018B3000038BF000069
:101BB00040B3000048B30000E8B2000028B30000C2
:101BC00020B3000014B300000CB3000054B30000B5
:101BD0001CB3000030B585B0047845688DF800402E
:101BE000D0E90240064A074B039053F82130019593
:101BF0008DF8084052F821106846984705B030BD6E
:101C0000C0080020C808002030B585B004784568B9
:101C10008DF80040D0E90240064A074B039053F884
:101C2000213001958DF8084052F8211068469847F8
:101C300005B030BDC0080020C80800202DE9F043E1
:101C4000DFF8748006784B7F08F806300D460746AB
:101C500096460FCD89B06C460FC495E80F003D78CD
:101C6000DFF85890DFF858C018F8055049F826E01A
:101C700084E80F004CF82600049665B1BEF1000F11
:101C80000B4A694607F1040008BF002200F0A2FBDE
:101C900009B0BDE8F083BEF1000F064A694607F1BE
:101CA0000C0008BF002200F031F909B0BDE8F08354
:101CB000D51B0000091C000014310020C8080020BA
:101CC000C0080020014B1B68184700BFD008002047
:101CD00038B50C4B984201D0002038BD00200D468D
:101CE000FEF74EFB084B1C7924B10020FEF750FB99
:101CF000112038BD012220461D601A71FEF748FBF5
:101D0000204638BD00200040D0080020034B9842F8
:101D100003D1034B00221A601A7170470020004063
:101D2000D0080020074B0849084A0020186082B0FC
:101D30001B680193019BD1F808051368C0B202B07B
:101D4000184700BF00D1004000D00040D808002054
:101D500030B56C4AD2F8043399058BB066D5D2F809
:101D60002431002B62D00023C2F82431D2F8243170
:101D700003934FF40171644B0398C2F8081393F86E
:101D8000291009B9012151605E4902228DF81820FD
:101D9000D1F88024C1F880249869D968099200227A
:101DA000CDE90710C3E90622D3E9001406A8A0472D
:101DB000544AD2F81C31BBB1534B186A5969884256
:101DC00069D350480022C0F81C21D0F81C010190B2
:101DD000019849B198688DF8182008915A610790C8
:101DE000D3E9001206A89047464AD2F84431DBB145
:101DF0000021454BC2F84411D2F8440193F8291050
:101E00000090009809B1012111609A6962B1002225
:101E1000586AD9689A610122CDE907108DF8182017
:101E200006A8D3E9001290470BB030BD354AD2F86E
:101E300004335B07BCD5D2F80831002BB8D0324B45
:101E4000996900293CD00021C2F80811D2F8081184
:101E500004910499D868596AD2F8182542545A6AEC
:101E6000996901325A625A6A8A42A1D1DA691968BB
:101E7000002A2ED0D8685D6A1C699A6107900022FA
:101E80000120DC60DA615A628DF8180008955B6801
:101E900006A898478CE793F8280000F0FF04002874
:101EA0008FD1C2F81C41D2F81C11029102999C6892
:101EB000186A196A205C01311962C2F81C0593E79F
:101EC000C2F80811D2F8080105900598D2F8182533
:101ED000C9E793F8292012B90A4A01205060094A3B
:101EE0004FF40170C2F80803586ADA6808900024B9
:101EF000012007928DF818005A689C6106A8904747
:101F000056E700BF00200040DC0800202DE9F0412A
:101F1000714F06792C2505FB067582B095F82A309D
:101F2000002B40F09A800D4604466C4900689046AC
:101F3000FFF7CEFE002840F08C802B68591C19D08A
:101F40001F2B4FF001028ABF65494FF0A04103F0FB
:101F50001F0302FA03F3C1F808352B681F2B86BF55
:101F600003F01F035E4A4FF0A04203F5E073032124
:101F700042F823106B685A1C0BD01F2B86BF03F04E
:101F80001F03574A4FF0A04203F5E073002142F8C7
:101F900023102368AA69C3F82425297D6B7D226854
:101FA0000B43C2F86C35D5E900122368C3F8142539
:101FB000C3F80C152B7D012B53D02C2303FB06F308
:101FC000FA18C2F804802A69FA50B8F1000F2DD02F
:101FD00022682B7F434D0021C2F81C11D2F81C212E
:101FE00000922268DDF800C0C2F84411D2F8441112
:101FF000226801910199C2F804532168090B4AB281
:102000005B01002ADBB261DB02F1604202F5614252
:1020100082F800332368344D1B0B5AB2520903F087
:102020001F03012101FA03F345F822302C23246811
:1020300003FB0673002204250121C4F8005583F830
:102040002A10C3E9062283F829205A6102B0BDE8AC
:10205000F081112002B0BDE8F081082002B0BDE897
:10206000F081AB68591C0BD01F2B86BF03F01F03F8
:102070001B4A4FF0A04203F5E073002142F8231001
:10208000EB685A1C1BD01F2B4FF001028ABF14496A
:102090004FF0A04103F01F0302FA03F3C1F8083523
:1020A000EB681F2B88BF03F01F0303F5E0738CBFA1
:1020B0000B4A4FF0A042032142F82310EB6822683C
:1020C000A968C2F80835C2F8101576E7074A01F08A
:1020D0000F010A4413769DE7DC080020511D000023
:1020E000000300508000020000E100E0FCEC00E092
:1020F000F8B53A4F047902682C2303FB04730021DE
:102100005B68C2F8001583B10368354AC3F8082339
:102110000368344D1B0B5AB25209203203F01F03DF
:10212000012101FA03F345F8223003684FF0FF3C28
:10213000D3F80C65D3F81455D3F80825D3F8101547
:10214000C3F814C5C3F80CC503686645C3F808C5D1
:10215000C3F810C50CD01F2E86BF06F01F06224BF9
:102160004FF0A04306F5E0764FF0020C43F826C08E
:102170006E1C0BD01F2D86BF05F01F051A4B4FF0AC
:10218000A04305F5E075022643F825604D1C0BD0F1
:102190001F2986BF01F01F01134B4FF0A04301F52B
:1021A000E071022543F82150531C0BD01F2A86BF33
:1021B00002F01F020C494FF0A04102F5E072022329
:1021C00041F822300068FFF7A1FD2C2303FB0474C3
:1021D000002384F82A306360F8BD00BFDC080020CB
:1021E0008402020000E100E000030050F0B5314E2F
:1021F00005792C2303FB056385B05C69002C53D162
:102200001C62996083F828405A610268C2F81C4138
:10221000D2F81C11026802910121029F91600268AC
:10222000D3F808C0C2F81C41D2F81C1101910199E1
:10223000D3F820E0196A5F681CF80EE001311962DA
:10224000C2F81CE517B1204605B0F0BD1A6A5C69FA
:102250000168944203D819E093F828203ABBD1F8DA
:102260001C21002AF8D0C1F81C71D1F81C2103925E
:10227000039AD3F820E01A6A1CF80EE001321A62C1
:10228000C1F81CE51A6AA242E9D30168D1F81C31F1
:10229000002BFBD00123CB6000202C2303FB056522
:1022A00000236B6105B0F0BD112005B0F0BD0F201B
:1022B000F3E700BFDC080020F0B5444BD3F824213D
:1022C00089B0002A52D00021C3F82411D3F8242168
:1022D000029202228DF81020029AD3F880043C4A20
:1022E000C3F880040790D3F83C05D3680690C2E990
:1022F000061105931168536804A89847334BD3F827
:102300004421BAB10021324AC3F84411D3F8444100
:1023100090690194019C68B1D3F83C35D06806936C
:102320000123C2E9061105908DF8103004A8D2E906
:1023300000139847254BD3F82021AAB10021C3F8F8
:102340002011D3F82001224A00900098506958B11A
:10235000D3F84C05936806908DF8101051610593E1
:1023600004A8D2E90013984709B0F0BDD3F81011C2
:102370000029C3D0C3F81021D3F8101114480391D9
:1023800003998169D3F83C458C42B7D1C569C768C8
:10239000D0E900168DB1D3F800C285612CF020057C
:1023A000C261C3F800520369C3600122CDE905741C
:1023B0008DF8102004A8B047A0E701238561CDE97E
:1023C00005748DF8103004A8B04797E7002000404E
:1023D000080900202DE9F04307797A4E4FEAC70833
:1023E00008EB070306EB830385B093F82030002B3E
:1023F00040F0A8800D460446734900689146FFF7F7
:1024000067FC002840F09A802B68591C19D01F2BBC
:102410004FF001028ABF6D494FF0A04103F01F0346
:1024200002FA03F3C1F808352B681F2B86BF03F0AF
:102430001F03664A4FF0A04203F5E073032142F800
:1024400023106B685A1C0BD01F2B86BF03F01F0391
:102450005E4A4FF0A04203F5E073002142F82310DA
:102460002368AA69C3F82425297D6A7D23680A4365
:10247000C3F86C25D5E900312268C2F80C35C2F8E2
:1024800014152B7D012B61D008EB07029200B318C5
:10249000C3F804902B69B350B9F1000F3DD0216807
:1024A0002B7F4B4D0022C1F81021D1F81011009163
:1024B0002168DDF800C0C1F82021D1F82011019178
:1024C0002168DDF804C0C1F82421D1F8241102915B
:1024D0002168DDF808C0C1F84421D1F84411226810
:1024E00003910399C2F804532168090B4AB25B01B6
:1024F000002ADBB25FDB02F1604202F5614282F842
:1025000000332368334D1B0B5AB2520903F01F03EB
:10251000012101FA03F345F822304744226806EB13
:102520008706002301240821C2F8001586F8204000
:10253000C6E90633736105B0BDE8F083112005B02C
:10254000BDE8F083082005B0BDE8F083AB68591CF6
:102550000BD01F2B86BF03F01F031C4A4FF0A04275
:1025600003F5E073002142F82310EB685A1C1BD0DE
:102570001F2B4FF001028ABF14494FF0A04103F016
:102580001F0302FA03F3C1F80835EB681F2B88BF5D
:1025900003F01F0303F5E0738CBF0C4A4FF0A04219
:1025A000032142F82310EB682268A968C2F80835B5
:1025B000C2F8101568E7084A01F00F010A441376C3
:1025C0009FE700BF08090020B92200000003005067
:1025D0001003020000E100E0FCEC00E0F8B5077930
:1025E0003A4C0268FE00F31904EB830300215B6898
:1025F000C2F8001583B10368354AC3F8082303689D
:10260000344D1B0B5AB25209203203F01F03012133
:1026100001FA03F345F8223003684FF0FF3ED3F888
:102620000CC5D3F81455D3F80825D3F81015C3F802
:102630000CE5C3F814E50368F445C3F808E5C3F8EE
:1026400010E50DD0BCF11F0F86BF0CF01F0C224B04
:102650004FF0A0430CF5E07C4FF0020E43F82CE065
:102660006B1C0CD01F2D86BF05F01F051A4B4FF0B9
:10267000A04305F5E0754FF0020C43F825C04D1C52
:102680000BD01F2986BF01F01F01134B4FF0A04351
:1026900001F5E071022543F82150531C0BD01F2A8D
:1026A00086BF02F01F020C494FF0A04102F5E07214
:1026B000022341F822303E4404EB86040068FFF711
:1026C00025FB002384F820306360F8BD0809002052
:1026D0001003020000E100E00003005001F060433D
:1026E000B3F1005F2CD1F0B40579244EEF007C19D2
:1026F00006EB840482B0636923BB6261A160026857
:10270000C2F82031D2F820C10268CDF804C0DDF84B
:1027100004C0C2F85831D2F8582100920268DDF89E
:1027200000C0D4F814C0C2F84415C2F848C5026805
:102730000121916062684AB1184602B0F0BC70474E
:1027400010207047112002B0F0BC7047036800E011
:102750008AB9D3F82011D3F858210029F8D0002ADB
:1027600014BF0F2000207B1906EB830300225A615F
:1027700002B0F0BC70470F20F5E700BF0809002049
:1027800030B1036848F240508B4208BF00207047C8
:1027900048F21050704700BF48B119B10B6893421E
:1027A00002D30A600020704748F21450704748F284
:1027B0001350704728B148F21150914208BF0020D1
:1027C000704748F210507047F0B1D1B110B50024F5
:1027D000C1E9004044798AB19C420CD100790D4B8B
:1027E00053F820309BB10C4620461146984708B953
:1027F000094B236010BD48F2115010BD48F2105033
:1028000010BD48F21350704748F21050704748F21C
:10281000035010BD14B400007652464DF0B1D1B152
:1028200010B50024C1E9004084798AB19C420CD1E2
:1028300000790D4B53F820309BB10C4620461146D1
:10284000984708B9094B236010BD48F2115010BDDC
:1028500048F2105010BD48F21350704748F2105023
:10286000704748F2035010BD48B400007052464D06
:1028700090B110B50B4A01689142044609D14268F3
:10288000094B127953F822304BB19847002323604B
:1028900010BD48F2405010BD48F210507047184625
:1028A000F4E700BF7652464DE0B3000090B110B59A
:1028B0000B4A01689142044609D14268094B1279DA
:1028C00053F822304BB198470023236010BD48F2E3
:1028D000405010BD48F2105070471846F4E700BF52
:1028E0007052464DE0B300007AB32DE9F0430D4637
:1028F00083B0064602AF1E49284698461446FFF7A5
:102900003FFF18B10437BD46BDE8F083D5F8049009
:10291000796A99F80520386A5200FFF73DFF0028D0
:10292000F0D199F80430134A52F82390B9F1000F0E
:102930001BD06EB13B6A009322464346294630467F
:10294000C8470437BD46BDE8F08348F210507047D1
:10295000094A32F81330002BECD00E336A46DB08FC
:10296000A2EBC3039D4602AEE4E748F20350C9E779
:102970007652464D7CB40000ACB400002DE9F04323
:102980000C4683B0064602AF1E49204615469846BF
:10299000FFF7F6FE18B10437BD46BDE8F083D4F862
:1029A0000490796A99F80520386A5200FFF702FF0F
:1029B0000028F0D105B399F80430134A52F8239057
:1029C000B9F1000F1BD056B13B6A00932A4643462B
:1029D00021463046C8470437BD46BDE8F0830B4A60
:1029E00032F81330002BEFD00E336A46DB08A2EB2F
:1029F000C3039D4602AEE7E748F21050CBE748F22A
:102A00000350C8E77052464DC4B40000F4B400004F
:102A100090B110B40B49002301E0192B0ED051F8EE
:102A2000332082424FEAC30403F10103F5D121446C
:102A30005DF8044B486870470348704703485DF8E9
:102A4000044B70470CB50000D4B50000E0B50000A1
:102A5000F8B50B4D0B4E0C4FAD1B0123ED083B7031
:102A60000AD0002401E0A54206D056F83430984739
:102A700001340028F7D0F8BD02233B700020F8BDD8
:102A800074E800006CE800002C090020064B1A785E
:102A9000022A06D01878A0F10100B0FA80F04009AF
:102AA00070470120704700BF2C09002070B51B4BF8
:102AB0006A469A4213D304460D46FFF7E7FF58B122
:102AC000174E336823B1174A174B12689A4223D026
:102AD00094B148F2175070BD4FF4054070BD134BD0
:102AE00013481449C01AC008000440F00100FEF762
:102AF0002DFC48F2195070BD002DEAD10E480F4947
:102B0000306000F03DFD0028E5D13168054B0C4CEC
:102B1000054A0C601A6070BD002070BD00E0032003
:102B2000FC210020180A00206572E54B88E80000AF
:102B3000A8E8000078BB0000300900201C0A002033
:102B40006169614D70B5164C6B46A34211D30D46B9
:102B500002B159B11349144B0968994203D1A8B184
:102B600048F2175070BD48F2025070BD48F2105044
:102B700070BD0E4B0E480F49C01AC008000440F04B
:102B80000100FEF7E3FB48F2195070BD0A4B0B49F8
:102B9000186813462A46BDE8704000F0D3BE00BF57
:102BA00000E00320180A00206572E54B88E8000069
:102BB000A8E8000078BB0000FC2100201C0A0020CF
:102BC000D0B1B1B1154A164B12689A4202D048F200
:102BD0000250704770B5134E044600230A460D4656
:102BE0003068214600F078FD48F27153984206D0D3
:102BF00070BD48F21450704748F2135070470022DD
:102C000011461046FFF79EFF0028F1D103462A46E1
:102C100021463068BDE8704000F05EBD180A002013
:102C20006572E54BFC210020F8B5124B124DED1AF0
:102C3000ED082D040C46014645F0030045F005055E
:102C40001646FEF783FB28460C49FEF77FFB5EB174
:102C5000013E0B4F2644013C14F8012F394628460B
:102C6000FEF718FDB442F7D128460649BDE8F84002
:102C7000FEF76CBB88E80000A8E8000010BD00006B
:102C800018BD000038BF000070B5324B324C3349DC
:102C9000E41AE408240444F0030682B03046FEF748
:102CA00055FB40232E4A2F492F48FFF7B7FD002838
:102CB00042D12E4A2E4B12682A49CDE9003200201B
:102CC00020232C4AFFF75AFE054680B348F24253B0
:102CD000984212D0FFF79CFE2A460346264944F04C
:102CE0000100FEF74FFD2846FDF702FB1D48FFF7E8
:102CF000DDFD054660B902B070BD204944F0020018
:102D0000FEF724FB1748FFF7D1FD05460028F2D057
:102D1000FFF77EFE2A460346174944F00100FEF7FE
:102D200031FD284602B0BDE87040FDF7E1BA3046FB
:102D30001349FEF70BFBD9E70546FFF769FE2A4664
:102D400003460D4944F00100FEF71CFD2846FDF73F
:102D5000CFFAAEE788E80000A8E8000094BB0000C6
:102D600040BC00003825002020BD0000F8280020CD
:102D7000B828002024000020B0BB0000F0BB0000F9
:102D8000C4BB0000F0B5002183B00846FEF77EFA10
:102D9000002840F08880FEF7F3F9444C444B454945
:102DA000E41AE408240444F003052846FEF7CEFAAA
:102DB000FDF7F8FA0646002867D144F00104FFF752
:102DC00047FE0646002854D13B492846FEF7BEFA86
:102DD00020233A4A3A493B48FFF7F6FC06460028CA
:102DE0003BD1394E394B009340200196202330606F
:102DF000374A33490020FFF777FD074608BB2022FA
:102E000033493448FFF710FF326830493248FFF742
:102E10000BFF2B48FFF72CFD064630B9FFF734FFB8
:102E200028462E49FEF792FAFEE7FFF7F1FD3246FB
:102E300003462B492046FEF7A5FC3046FDF758FA1D
:102E4000ECE7FFF7E5FD3A46034625492046FEF745
:102E500099FC3846FDF74CFAD1E7FFF7D9FD324629
:102E600003461F492046FEF78DFC3046FDF740FA29
:102E7000B7E7FFF7CDFD3246034619492046FEF776
:102E800081FC3046FDF734FA9EE7FFF7C1FD44F0C0
:102E900001040346324620461149FEF773FC3046D2
:102EA000FDF726FA8BE7FDF723FA74E7A8E80000A0
:102EB00088E8000080BC00009CBC000020BC000032
:102EC0000022002020BD0000F8280020B8280020A3
:102ED00024000020BCBC0000D4BC0000E8BC000002
:102EE000B0BB000010B44FF080414FF08052002082
:102EF000C1F80C015E4BC1F81001C1F83805D2F8D9
:102F00000414C3F82015D2F80814C3F82415D2F815
:102F10000C14C3F82815D2F81014C3F82C15D2F8E5
:102F20001414C3F83015D2F81814C3F83415D2F8B5
:102F30001C14C3F84015D2F82014C3F84415D2F875
:102F40002414C3F84815D2F82814C3F84C15D2F845
:102F50002C14C3F85015D2F83014C3F85415D2F815
:102F60003414C3F86015D2F83814C3F86415D2F8D5
:102F70003C04C3F86805D2F840043E49C3F86C0528
:102F80000968D2F84424C3F87025082924D04FF0EA
:102F90008043D3F80024D20744BF6FF00102C3F886
:102FA0000024354AD2F8883043F47003C2F88830E0
:102FB000BFF34F8FBFF36F8F4FF01023D3F8002272
:102FC000002A23DBD3F80432002B1FDB2B4B2C4AC7
:102FD0001A605DF8044B70472A4B1B68002BD6D152
:102FE00029482A4A2A4C04602A492B4BFB20C2F864
:102FF00018050A681B68294822F00F0203F00F0326
:1030000013434FF400720B600260C0E7244B0122AF
:10301000C3F80425D3F80024002AFBD04FF0102376
:1030200012221F49C3F80022D1F80034002BFBD034
:103030004FF0102212211A4BC2F80412D3F80024C8
:10304000002AFBD000221649C3F80425D1F8003429
:10305000002BFBD0BFF34F8F0749124BCA6802F415
:10306000E0621343CB60BFF34F8F00BFFDE700BFAB
:1030700000C000403001001000ED00E044000020DE
:103080000090D003340100108C56004000F0004046
:1030900048810300E40E00405802001040960240B0
:1030A00000E001400400FA050B4B98420ED010D905
:1030B0000A4B984202D148F20250704703F5B853C8
:1030C0001833984202D048F21650704748F24250E6
:1030D00070470028F7D170478408F000080CF00012
:1030E0002DE9F04F037AA5B023B10024204625B086
:1030F000BDE8F08F4668DFF8B490054624AFB068AD
:103100000C4603F025F9042307F8883D05F10C0867
:10311000B279414683460DF1090008F028F8484687
:103120000121FDF759F98246BFF35F8F50BB00F0D4
:10313000D5FCB27901943946013201235846CDF8C5
:10314000008002F0A3FD044600F0DCFCBFF35F8FBB
:10315000144BC9F800A09C4208D019D9124B9C42CC
:103160001AD003F5B85318339C4218D148F2425490
:10317000B2790DF10901404607F0F9FF204625B06C
:10318000BDE8F08F48F20454204625B0BDE8F08F2A
:103190002CB901232B72A9E748F20254E8E748F260
:1031A0001654E5E78408F000080CF0001831002000
:1031B0002DE9F84346681B4C0746B068894603F082
:1031C000C7F8012180462046FDF706F9BFF35F8F5F
:1031D000D0B9054607F1080372794946404601F027
:1031E000B1FEBFF35F8F104B2560984208D013D912
:1031F0000E4B98420CD003F5B853183398420DD1BA
:1032000048F24250BDE8F88348F20450BDE8F88324
:1032100048F20250BDE8F8830028F7D048F2165073
:10322000BDE8F883183100208408F000080CF00095
:1032300010B504460C3063689A7907F098FF0020B7
:10324000207210BD08B52022083007F090FF002042
:1032500008BD00BF2DE9F043294D8FB0402304AFD6
:1032600081468846284620240121C7E90034FDF71D
:10327000B3F8BFF35F8F58BBADF50E7D064600F087
:103280002DFC04AB07F1040C029307F1080321465F
:10329000CDE9003C09F108023B46404603F024F822
:1032A000044600F02FFCBFF35F8F164B2E609C424C
:1032B00008D019D9144B9C4210D003F5B8531833D9
:1032C0009C4217D148F242502C37BD46BDE8F083EE
:1032D00048F204502C37BD46BDE8F08348F2025056
:1032E0002C37BD46BDE8F08324B920462C37BD46B7
:1032F000BDE8F08348F216502C37BD46BDE8F08398
:10330000183100208408F000080CF00008B52022D5
:10331000083007F02CFF002008BD00BF2DE9F04F5A
:10332000A3F1140489B02C2C68D8DFE804F05367AB
:10333000676767676767586767675D676767676736
:103340006767676767676767676762676767676712
:10335000676767676767676767671700D1F8048003
:103360004FF00909DFF8A8A00E4605461C46504656
:1033700098F80630079301211746FDF72DF883468C
:10338000BFF35F8F00283CD100F0A8FB129B1F49C0
:1033900007AACDE90243049206F108032A46CDE9C3
:1033A0000097284602F050FE044600F0ABFBBFF346
:1033B0005F8F2046CAF800B0FFF776FE38B998F85C
:1033C0000610079A48F21653914218BF184609B0E2
:1033D000BDE8F08FD1F804804FF00509C2E7D1F8BD
:1033E00004804FF00609BDE7D1F804804FF00709CB
:1033F000B8E7D1F804804FF00809B3E748F211505C
:10340000E5E748F2045009B0BDE8F08F2D3B00001D
:10341000183100202DE9F04F87B00C461D46143BB3
:10342000064601469046109F20462C2B66D8DFE8C2
:1034300003F017656565656565655D6565654D6581
:10344000656565656565656565656565656545654C
:103450006565656565656565656565656565550091
:10346000D4F80490FFF73CFE00284ED105230593C5
:10347000DFF8A8A001215046FCF7AEFF8346BFF35A
:103480005F8F002844D100F029FBCDE9018599F830
:103490000630009304F10C013B46059A304602F0D9
:1034A000BDFC044600F02EFBBFF35F8F2046CAF838
:1034B00000B007B0BDE8F04FFFF7F6BDD4F80490B8
:1034C000FFF70EFE08BB08230593D1E7D4F804905C
:1034D000FFF706FEC8B907230593C9E7D4F804909F
:1034E000FFF7FEFD88B909230593C1E7D4F80490DE
:1034F000FFF7F6FD48B906230593B9E7FFF7F0FD9E
:1035000048F21153002808BF184607B0BDE8F08FF5
:1035100048F2045007B0BDE8F08F00BF183100201A
:1035200010B5002182B00846FFF7C0FA48B9064C32
:1035300001900123C4F8003502F080FF0198C4F81F
:10354000000502B010BD00BF00A0025038B50A4B04
:1035500000251D60BFF35F8F084C0123C4F80035C0
:1035600002F040FFC4F8005520B90146BDE83840DC
:10357000FFF79CBA032038BD1831002000A002508C
:1035800038B54B4B02689A422BD00D4604460121B8
:103590004848FCF721FFBFF35F8FF0B900F09EFAB7
:1035A0002946201D00F006FF434B98421CD8023BE1
:1035B00098426FD20B3B984228D9404B984266D034
:1035C00040D8023B98423AD00133984208BF48F2B3
:1035D000715425D048F2165422E048F20454204693
:1035E00038BD0024204638BD354B98424CD032D8E7
:1035F000033B984242D01CD9324B984241D0013310
:10360000984208BF48F217540AD0E3E7013B9842BA
:1036100037D2043B984228D02AD804460028D9D172
:1036200000F070FABFF35F8F224B00221A60204631
:1036300038BD023B984221D001339842CAD148F2AA
:103640001454EDE7204B984202D002339842C1D186
:1036500048F20354E4E71D4B9842F0D01DD80A3BD2
:10366000984211D009339842B4D148F21354D7E7A5
:10367000174B9842ECD002339842ABD148F2105429
:10368000CEE748F21154CBE748F20154C8E748F2BC
:103690000254C5E748F27054C2E70E4B9842F0D08E
:1036A000A0F57000A0F634400128D1D992E700BF00
:1036B0006169614D18310020120CF000080CF00017
:1036C000250CF000230CF0000D0CF000310CF00084
:1036D000010CF000320CF00070B50E461546041DCA
:1036E0007BB301218E48FCF777FEBFF35F8F002884
:1036F00077D100F0F3F93246A9B2204600F040FF3E
:10370000044600F0FFF9874B9C4251D8023B9C4293
:1037100080F0F0800B3B9C4240F29180824B9C42B7
:1037200000F0E58000F2F080023B9C4200F0AB80AC
:1037300001339C4208BF48F271504CD048F21650F9
:1037400049E000F0CBF93246A9B2204600F018FF5C
:10375000044600F0D7F9734B9C4213D8023B9C42BD
:1037600080F0BC800B3B9C423ED8013B9C4280F0E9
:10377000A680043B9C4252D000F2A7802046002C39
:1037800040D170BD694B9C4200F08D803DD8033B19
:103790009C4200F0A08040F28980654B9C4200F082
:1037A0008E8001339C4208BF48F217502AD170BD69
:1037B0005E4B9C4200F0988034D8033B9C424CD036
:1037C0005AD95B4B9C4200F08C8001339C4208BF6D
:1037D00048F21750B2D1BFF35F8F514B00221A60ED
:1037E00070BD48F2045070BD4F4B9C426AD000F24D
:1037F0008480023B9C425FD001339C4208BF48F268
:103800007150BED048F2165070BD4A4B9C4253D006
:1038100026D80A3B9C4246D009339C42F2D148F25A
:10382000135070BD434B9C422DD02FD80A3B9C4275
:103830005AD009339C4281D148F21350CBE7013B67
:103840009C424ED2043B9C42F6D064D93A4B9C42F7
:1038500026D002339C427FF471AF48F21050BAE791
:10386000364B9C422BD0A4F57004A4F63444012CB2
:10387000C8D848F2035070BD023B9C42EDD00133E2
:103880009C427FF45BAF48F21450A4E72B4B9C4260
:1038900027D0A4F57000A0F6344001283FF64EAFC3
:1038A00048F2035097E748F2015070BD023B9C423A
:1038B00011D001339C42A5D148F2145070BD48F29A
:1038C000115070BD48F2025070BD1B4B9C42D0D0CD
:1038D00002339C4296D148F2105070BD48F27050AD
:1038E00070BD48F2115076E748F2015073E748F294
:1038F000025070E748F270506DE7114B9C42B8D00F
:1039000002339C42B5D07DE70D4B9C42C8D00233B8
:103910009C42C5D012E7002C7FF410AF20465AE736
:1039200018310020120CF000080CF000250CF000FB
:10393000230CF000310CF000010CF000320CF00010
:103940000D0CF0000C2B39D813F0030F33D1F0B568
:103950000E4683B005460121574817461C46FCF722
:103960003BFDBFF35F8F60BB043500F0B7F864B375
:10397000A2B23946284601F039F8504B98423FD858
:10398000023B984264D20B3B98422BD8013B9842B1
:103990006ED2043B984268D051D8B0B148F216506C
:1039A000019000F0AFF8BFF35F8F434B0198002206
:1039B0001A6003B0F0BD48F21650704748F211503B
:1039C000704748F2045003B0F0BD3146284600F07D
:1039D00051FF3A4B984213D8023B984238D20B3BE6
:1039E00098421FD9364B984226D05DD8023B984268
:1039F0004AD00133984208BF48F27150D0D0CDE789
:103A0000304B984237D026D8033B98421DD035D949
:103A10002D4B98422CD00133984208BF48F21750E2
:103A2000BED0BBE7013B984222D2043B98421CD057
:103A300005D80028B4D0B1E748F20250B0E7234BD4
:103A400098422ED002339842A8D148F21050A7E7EE
:103A500048F27050A4E71E4B984215D017D80A3B85
:103A6000984208D00933984298D148F2135097E70A
:103A700048F2115094E748F2015091E7023B984216
:103A8000E3D00133984289D148F2145088E7114BB2
:103A90009842EDD0A0F57000A0F6344001283FF622
:103AA0007DAF48F203507BE70B4B9842F9D00233CD
:103AB0009842F6D072E700BF18310020120CF000D7
:103AC000080CF000250CF000230CF000010CF000B5
:103AD000310CF000320CF0000D0CF000064A1368B7
:103AE0000133012B136006D10449054AC1F80035A2
:103AF0004FF4806353607047FC28002000A0025000
:103B000000E100E0064A1368013B13603BB9054938
:103B1000054AC1F800354FF48063C2F8843070471D
:103B2000FC28002000A0025000E100E008B510468B
:103B3000FFF746F838B1044A044B48F20251884274
:103B40000CBF1046184608BD080CF0000F0CF00022
:103B50002DE9F84F4400DFF85CB126180BEBC606E0
:103B60008146F76A012F8A46904667D03DD3022FDF
:103B700030D100F1010909EB4909756A4FEAC90919
:103B80000027B36A346AAB4203F1FF329CBF1B19B2
:103B900003F1FF33A4EB05048CBF531B5B1B0BEB42
:103BA0000902444528BF44469C42506828BF1C4631
:103BB00028445146224607F0DAFA336A25449D42EA
:103BC0002744A8EB0408A24408D07562B8F1000F9E
:103BD000D7D100E000273846BDE8F88F00231D4606
:103BE0007362B8F1000FCCD1F5E7B36A756AAB42E6
:103BF0009CBF326A9B18013B5B1B9845EBD8044481
:103C000000F101090BEBC40409EB49090BEBC90BEB
:103C1000266ADBF80400761BB045284443D33246BD
:103C2000A8EB060507F0A3FA0AEB0601DBF804008F
:103C30002A4607F09CFA47466562CCE7D6E9082594
:103C4000B76AAF4298BFBF18461C013F06EB460655
:103C50007F1B0BEBC606474528BF47467068A2EBA3
:103C600005084745284412D3A1444246A7EB08055E
:103C70000BEBC90B07F07BFA0AEB080170682A46C8
:103C800007F075FACBF824503846BDE8F88FA14408
:103C90000BEBC90B3A463D4407F069FACBF82450C8
:103CA0003846BDE8F88F4246454407F060FA47467B
:103CB000656290E71C31002038B5114C114B124859
:103CC000E36110254FF40063104A11492362E06458
:103CD00000232565E01D0225A3626362E362A365FC
:103CE0006365E365A261A264C4E9045507F06BFA59
:103CF0002046084907F067FA2023A37138BD00BFAA
:103D00001C31002010290020002900202CBD0000BB
:103D100038BD00003CBD0000F8B51646D0E91723B9
:103D20000546D01AB0FBF2F402FB1404B44228BFDB
:103D300034460F46DCB9934208D1D5F8E83005F196
:103D400064012846984788B9EA6D2866B6FBF2F404
:103D500002FB04F444B1D5F8E8302246394628463F
:103D6000984718B92744361B76B93046F8BD05F197
:103D700064001844224602F0E3FBD5E917232344EC
:103D80002744361B2B66D6E7286E193005EB8000DA
:103D90003246394602F0D4FB2B6E1E442E660020BC
:103DA000F8BD00BF70B138B50D46F021044602F0F1
:103DB000CDFB042D04D8DFE805F0203239030700DD
:103DC000204838BD204870472049214A214BC4F87B
:103DD000E43080200325E0652560C4E93A122046DE
:103DE0009847B0F5720F18D027D91B4B9842E7D0EF
:103DF0000133984223D1194838BD194B19491A4A41
:103E0000C4F8E43000254020E0652560C4E93A129A
:103E100020469847B0F5720FE6D10B4838BD104BDD
:103E20001049114AC4F8E4300225ECE70C4B0D4967
:103E30000D4AC4F8E4300125E5E70028C1D04FF46D
:103E4000750038BD0102F0000002F000515400007E
:103E5000D55400001D5400000100F2000202F000E1
:103E6000994C0000ED4C0000C14E000088B3F8B53D
:103E7000154652B30F4600293BD04368044633BB76
:103E8000D0E91723D01AB0FBF2F602FB1606AE42B9
:103E900028BF2E467EBB9A4208D1D4F8E83004F100
:103EA000640120469847B0B9E26D2066B5FBF2F692
:103EB00002FB06F646B1D4F8E830324639462046D1
:103EC000984740B93744AD1B15BB0020F8BD1848D2
:103ED000F8BD18487047184B984227D001339842D4
:103EE00022D0144BB0F5720F0CBF18464FF475007A
:103EF000F8BD1248F8BD04F164001844324602F0DF
:103F00001FFBD4E9172333443744AD1B2366C2E7B4
:103F1000206E19302A46394604EB800002F010FB6F
:103F2000236E1D442566D0E70548F8BD0548F8BD59
:103F30000C02F0000002F0000100F2000302F000A9
:103F40000202F0000102F00000283AD000293CD023
:103F500070B5026EB2B9164601230D464360314674
:103F6000D0F8E8300446984778B9D4F8EC302046C9
:103F7000984750B923682066032B24D8DFE803F064
:103F80001D19111B00F16406E6E7124B98421AD086
:103F9000013398421BD0B0F5720F10D04FF475006A
:103FA00070BD1C22284604F1080102F0C9FA002065
:103FB00070BD2022F6E74022F4E71422F2E706481B
:103FC00070BD05487047054870BD054870470548F5
:103FD00070BD00BF0100F2000002F0000102F0001D
:103FE0000502F0000202F000F0B5BDB004460F4635
:103FF0006846F0211D46164602F0A8FA042C3DD86A
:10400000DFE804F03732213C0300032200928022D3
:1040100040491792404A414B3993CDE93A126846DC
:104020009847B0F5720F1DD036D93D4B984225D038
:10403000013398422DD13B4C6846F02102F086FABC
:1040400020463DB0F0BD384B3849399301220092EB
:1040500040221792364A6846CDE93A129847B0F5A1
:10406000720FE1D1334CE7E72F4B304939930222ED
:10407000EDE72D4B2D4939930022E8E72E4CDBE785
:10408000274B9842FAD001339842D4D0B0F5720F42
:10409000E8D04FF47504CFE70028FAD16EB147B3EA
:1040A000019B13BB324639466846FFF735FEB0F533
:1040B000720FD7D0B9D80028EBD14DB3189AB2B946
:1040C00011460123019368463A9B98470028D7D1AF
:1040D0003B9B684698470028D2D1009B1890032B41
:1040E000CCD8DFE803F01311080F144CA4E719A98A
:1040F000E7E7134CA0E71C22284602A902F020FAA9
:10410000002499E74022F7E72022F5E71422F3E79D
:104110000C4C91E751540000D55400001D54000090
:104120000100F2000202F000994C0000ED4C00008A
:10413000C14E00000002F0000102F0000C02F0008D
:104140000302F0000502F000F0B51F4699B000230D
:104150000E461546D0F8D040194605A8032201F0B6
:1041600059FA48BBA4000146082303AA05A8CDE9D3
:10417000035401F08FFAF8B9291905A801F0B0FA33
:10418000D0B937B92B461022314605A801F0C0FA44
:1041900090B918A904F1100341F8583D3246019135
:1041A0000095194605A801F0F9FA054B002814BF3F
:1041B0001846002019B0F0BD014819B0F0BD00BF8D
:1041C000360CF0002DE9F04F764C80468946944637
:1041D0009E460FCCB7B007AF3D460FC594E80F0021
:1041E00004F1100685E80F000FCE0FAD0FC596E85D
:1041F0000F00303485E80F000FCC17AD0FC50FCC82
:104200000FC594E80F00D8F8D040042C85E80F00C3
:1042100001D0082C08D1251D409BAD009D4207D040
:10422000614837B0BDE8F08F604837B0BDE8F08F27
:1042300009EB0C019CFA8CF30CF118080CF1090045
:10424000C9F800302EBA802328F00F08A8EB00022E
:10425000C9F8046048440B720021CDF80CE002F06C
:1042600073F9409B1B09A5F1100508BF23AC6DD065
:10427000042CDDF80CA04FF0000623ACAB461FD198
:1042800053E02046CDE9057B01F004FA294630BB16
:10429000204601F025FA36AD4FF0100C43464A4651
:1042A0004146E0B945F8C8CD2046CDE900A501F06A
:1042B00075FA0AF1100A90B9409BB6EB131F44D26D
:1042C000002319460222204601F0A4F9014617A84E
:1042D00000EB0615082305AA01360029D1D0344881
:1042E00037B0BDE8F08F2046CDE9057B01F0D2F96B
:1042F00029460028F3D1204601F0F2F936AD4FF0FF
:10430000100C43464A4641460028E8D145F8C8CD3E
:104310002046CDE900A501F041FA0AF1100A002873
:10432000DDD1409BB6EB131F0FD2002319460222AA
:10433000204601F06FF901460FA800EB061508238F
:1043400005AA01360029CED0C9E75D460023039EA9
:10435000194601222046CDE9056501F05BF90028E8
:10436000BDD10146082305AA204601F093F9002893
:10437000B5D17119204601F0B3F90028AFD101463B
:10438000409A304602F0E0F8409B009640A9019127
:1043900032462046194601F001FA00283FF441AFA9
:1043A0009DE700BF44BD0000230CF000210CF0008D
:1043B000360CF0002DE9F0478EB0002800F0C680E2
:1043C000002900F0B68004460D46E42102F0BEF854
:1043D00007A9204601F0C8FF20B1614E30460EB05B
:1043E000BDE8F0875F4F4FF0FF31386802F0CEF83C
:1043F000002840F0A7802A4607A9204601F044FC87
:104400000646386802F0E4F8002840F09780002E55
:10441000E3D1E421204602F099F84FF0FF313868EB
:1044200002F0B4F8002840F0968007A9204601F079
:104430009BFF002874D1D4F8D030042B01D0082B76
:104440006ED1D4F8C4200C2A6AD803F1040A0EAB4A
:104450004FEA4A1243F8242D06A804AACDE9002009
:10446000029507A90022204601F092FA00284ED1B9
:10447000069B0498D4F8C42023F00303083304F106
:10448000840818449200414602F05AF8D4F8C42037
:10449000069B049903EB82064FEA8A0ACDF800A036
:1044A0003246434620460696FFF78CFE814670BB97
:1044B0005146204602F04AF84B46224641462046E5
:1044C000FFF742FE064610BBD4F8D430C4F8C4004F
:1044D00023F4803343F001030122C4F8D430224B8B
:1044E000C4F8CC204046C4F8DC30402102F02EF85D
:1044F00028464FF4BF5102F029F8386802F068F8F6
:1045000000283FF46BAF194802F002F866E7204636
:10451000E42102F01BF828464FF4BF5102F016F8D0
:10452000386802F055F810B1104801F0F1FF104E54
:1045300054E7104E30460EB0BDE8F0870B4801F04E
:10454000E7FF64E70C4801F0E3FF54E70B4E304609
:104550000EB0BDE8F087084801F0DAFF65E700BF5C
:10456000110CF000A4310020CDAB2301CCBD000024
:10457000120CF000200CF000B4BD0000250CF0007F
:104580002DE9F04F9BB000283FD0002A43D021B93D
:104590008B4658461BB0BDE8F08FA94F04460D4628
:1045A00038684FF0FF31164601F0F0FF48BBA54BCD
:1045B000D4F8DC209A4212D1D4F8D430DA0739D5B5
:1045C000D4F8CC30113338D8D4F8D080B8F1040FF7
:1045D00036D0B8F1080F33D0DFF878B201E0DFF859
:1045E00078B22946304601F0B1FFD4F8C430C3B9DF
:1045F000386801F0EDFF0028CBD0934801F088FF28
:10460000C7E7924801F084FFD1E7DFF850B258467F
:104610001BB0BDE8F08FDFF848B258461BB0BDE8CC
:10462000F08F0023C4F8C43004F18400402101F06D
:104630008DFFDDE7DFF82CB2D3E7DFF82CB2D0E74F
:10464000D4F8C4200C2A60D804F14003029304F18A
:10465000840A002A5CD09200514604F1480001F01F
:104660006FFFD4F8C420029908F104039B00009363
:10467000920053462046FFF7A5FD83460028B0D19F
:104680000346224651462046FFF75EFD834600283A
:10469000A7D14FEA880B04EB0B090122D9F80C30A3
:1046A0001BBA9B184FF000011BBA28BF1146C9F86E
:1046B0000C3001B3D9F8083001221BBA9B184FF017
:1046C00000011BBA28BF1146C9F8083099B1D9F8C2
:1046D000043001221BBA9B184FF000011BBA28BFFF
:1046E0001146C9F8043031B154F828301BBA0133EF
:1046F0001BBA44F82830002307A81946032200F00B
:1047000089FF50B1DFF864B16BE7DFF864B168E7A7
:104710004021504601F01AFFBBE70146082305AAD5
:1047200007A8CDE9054B00F0B5FF0028EAD14946BE
:1047300007A800F0D5FF0028E4D1454AD4F8D430CA
:104740001A4266D015F00F0B4FEA151303930EBFF4
:104750004FF0100B013303935D450DD0A5EB0B0813
:104760004146304601F0F2FE33464246314607A844
:1047700000F0CEFF0028C5D104F1300810224146D8
:10478000029801F0DDFE4046102101F0DFFE1AAA7A
:10479000102342F8583D07A80192CDF80080194631
:1047A000424600F0FBFF0028ACD1A5EB0B003044E3
:1047B0005A46414601F0C4FED4F8D430DB0509D492
:1047C0004246DDE90203314600F090FC83460028B2
:1047D0007FF407AF09F11002039901E0914508D079
:1047E00052F8043D1BBA5B181BBA4FF0010113606D
:1047F000F4D25146012322462046FFF7A5FC83460A
:1048000000287FF4EEAED4F8CC300133C4F8CC30BD
:10481000EBE604F130084046102101F097FE4346D4
:104820004146102207A800F073FF00287FF46AAF0A
:10483000D4F8D43043F48033C4F8D43082E700BFD6
:1048400094310020CDAB2301CCBD0000B4BD0000ED
:1048500000010100210CF0000E0CF000270CF0000C
:10486000000CF000080CF000070CF000360CF00013
:10487000040CF0002DE9F0418EB0002900F0918089
:1048800000287ED04E4F0D4604464FF0FF31386869
:1048900001F07CFE002879D14A4BD4F8DC209A4202
:1048A00063D1D4F8D430DB0779D507A9204601F0CD
:1048B0005BFD0646002859D1D4F8D060042E01D003
:1048C000082E73D1D4F8C4300C2B71D80EAB720102
:1048D00043F8242D06A804AACDE90020029507A9D3
:1048E0000022204601F054F8002863D1069B04986A
:1048F000D4F8C42023F00303083304F184081844D7
:104900009200414601F01CFED4F8C420069B049995
:10491000043603EB820CB6000096624643462046FE
:10492000CDF818C0FFF74EFC0646002843D10346D9
:10493000224641462046FFF707FC064600283AD1AA
:10494000D4F8D430C4F8C40043F001030122404637
:10495000C4F8D430C4F8CC20402101F0F7FD28463B
:104960004FF4BF5101F0F2FD00E0174E386801F03E
:104970002FFE10B1154801F0CBFD30460EB0BDE85A
:10498000F081134E30460EB0BDE8F081114801F0C1
:10499000BFFD0C4BD4F8DC209A4282D0E5E70E4EE6
:1049A000E4E70E4E30460EB0BDE8F0810C4EDDE778
:1049B0000C4EDBE70C4E2046E42101F0C7FDCEE7AC
:1049C000A4310020CDAB23010E0CF000CCBD0000C3
:1049D000250CF000B4BD0000080CF000200CF00025
:1049E000210CF000040CF000260CF0002DE9F84337
:1049F00060B3054614460E4639B1302A01D89307F4
:104A000028D0254F3846BDE8F883EAB9DFF89C8006
:104A10004FF0FF31D8F8000001F0B8FD074678BB31
:104A2000402105F1840001F091FDA408C5F8C440BF
:104A3000D8F8000001F0CCFD0028E3D0174801F0C1
:104A400067FD3846BDE8F883154FDBE7154F38465C
:104A5000BDE8F883DFF854804FF0FF31D8F800004C
:104A600001F094FD074658B905F1840948464021F4
:104A700001F06CFD31464846224601F061FDD4E765
:104A8000094805F1840901F043FD4846402101F041
:104A90005DFD002EEED1C8E7040CF000CCBD000097
:104AA000030CF000250CF000B4BD00009431002090
:104AB0002DE9F04F87B0109C002C00F08C806F4ED9
:104AC000A2F1020CB4457FD80746002800F081808F
:104AD000002900F08E8002F107081D4691460E461F
:104AE0004FEAD808B3B922461FFA88F1B047034607
:104AF00000285FD108F1FF3819F0070F14F80820DB
:104B000042F080016CD104F808100023184607B069
:104B1000BDE8F08F1FFA88F1184600F00FFC02285C
:104B2000814668D9032802D12B78032B63D909F178
:104B300007034FEAD30BA8EB0B0104EB0B00C9F101
:104B4000000901F003FD09F00709FF2343FA09F901
:104B50000BF1FF335FFA89F204EB03091FFA8BF3C1
:104B60000393ABF1100304934FF6FF73CDF8148059
:104B7000019390460295224603993846B047002893
:104B800077D199F80030BBF10F0F08EA030389F8D9
:104B9000003032D81FFA8BF31946029A204600F0F3
:104BA000D1FA022860D0019B013B0193E3D1DDF8EB
:104BB0001480334B01934146204601F0C7FC019B12
:104BC000184607B0BDE8F08F2E4B184607B0BDE879
:104BD000F08F2D4BF4E72D4B184607B0BDE8F08F52
:104BE000C9F1000202F0070241FA02F204F80820BB
:104BF000E6E7274BE4E7274BDCE7049B029AE5183E
:104C000002EB030A09E0002BC4D0B04788BB99F837
:104C1000003008EA030389F8003010231946524691
:104C2000284600F08FFA0346022B2A464FF0100167
:104C30003846E8D1029D013C04EB0B01012314F836
:104C4000012F1344A14223704FEA2323F7D1013DE2
:104C500005EB0B03022215F8011F0A449D422A703E
:104C60004FEA2222F7D150E7029DBBF1000FE2D1BB
:104C70004BE7DDF8148003469CE700BFFDFF07000B
:104C8000010CF000310CF000250CF000300CF000AD
:104C9000140CF000320CF000E8B110B50468012CDF
:104CA00012D0022C02D044B10C4810BD0830202292
:104CB0000B4901F045FC002010BD083014220949C1
:104CC00001F03EFC204610BD08302022064901F0CC
:104CD00037FC002010BD4FF4720070470100F20055
:104CE000F8BD0000E4BD000018BE0000002800F080
:104CF000B980F8B50368002B00F0AE80C0F29D804B
:104D0000022B00F39A80022704460E4657484FF0C4
:104D1000FF31154601F03AFC002840F09F80544ACC
:104D20001368002BFCD1534A1368002BFCD1524866
:104D30000368002BFCD14FF0FF3001F063FC8020B2
:104D400001F066FC4D484E4A4E490123036007209E
:104D500010600B60A2F59A72A36C13604A4BE16C71
:104D600051601F602368002B0BD019DB022B17DC6E
:104D7000464B626A1A60226A43F8042CE26943F8DF
:104D8000082C434BA2691A60626943F8042C22691B
:104D900043F8082CE26843F80C2CA26843F8102C66
:104DA000344A1368002BFCD1002D48D1394B042222
:104DB0001A60304A1368002BFCD12F4A1368002B6D
:104DC000FCD12368002B0BD019DB022B17DC2F4AF8
:104DD000314B126862621A682262043B1B68E3610D
:104DE0002B4A2E4B1268A2611A68626153F8042C98
:104DF000226153F8082CE2600C3B1B68A360284A30
:104E0000284B1268A2641A681E4D27482149E264A3
:104E1000002201242C6003F5A07302600A601C6864
:104E2000002CFCD1154B11481C6001F0D1FB18B1CE
:104E30001E4801F06DFB2046F8BD1D48F8BD6368B3
:104E4000012B04BF184A13601A4A1B4B16604020FE
:104E50001D6001F0E3FBACE7012755E7174801F0BF
:104E600057FB5CE74FF47200704700BFA831002089
:104E70001CB9025010B9025020BC025018B80250A0
:104E800000B90250C4B70250C0B702505CB602501D
:104E900050B60250C8B7025058B602504CB6025035
:104EA000CCB70250D0B7025084B60250CCBD00003F
:104EB0000100F20028BC02502CBC0250B4BD00001E
:104EC00000283BD0F0B482B0436A0193836893FA20
:104ED00083FC019BD0E90712D0E90376D0E90554A1
:104EE0001BBA4362436C019309BA836AC16112BA67
:104EF00002623FBAD0E90F1236BA2DBA24BAC0E91D
:104F000002C7C0E90465C76A8461066B456B846BA0
:104F100093FA83FC019B3FBA36BA2DBA24BA09BA78
:104F200012BA1BBAC0E90AC7C0E90C65C0E90E4154
:104F3000C0E91023002002B0F0BC70474FF47200AB
:104F4000704700BF2DE9F047002950D0002B52D008
:104F5000002854D0D0F8B842B4F5107F2BD8D0F840
:104F6000BC620134A64226D84AB30736F608B242DC
:104F700025D8174603F104090A461D4682463B46DA
:104F800048464C2101F0AAFB044648BB07F1030840
:104F9000B7424FEA980816D04146484600F004FA56
:104FA000F0B151464FF4377205F1500001F0C8FAE4
:104FB000154B2B6000E0154C2046BDE8F087144CE3
:104FC0002046BDE8F087DAF8BC321F33C3F34F1335
:104FD0000AF1D8024146484600F01AF90228DBD00F
:104FE00028464FF44C7101F0B1FA0A4CE4E70A4C40
:104FF0002046BDE8F087094C2046BDE8F087084C04
:105000002046BDE8F08700BF020000EC9508F000E4
:105010000B08F0000C08F0000908F0000A08F00086
:105020000208F00038B504464FF4806001F0F6FA4B
:10503000054D06480649074A00232B6003600B68AC
:105040002360136038BD00BFC8B102502CB10250BC
:1050500004B1025008B102500138072815D8DFE822
:1050600000F0100C1408141414048B698B600020D9
:1050700070474B698B60002070470B698B60002084
:105080007047CB688B60002070470148704700BFB5
:10509000310CF1000B6802E0082B0B6006D8426867
:1050A00013424FEA4303F7D000207047004870478F
:1050B000310CF100084B094A002119601368002BDC
:1050C000FCD107480749084A03604FF480604FF05D
:1050D000FF330860136070472CB1025010B90250C2
:1050E000C4B1025008BA025008B10250012BF8B501
:1050F00017461CD010221D460C4601F01FFAE0B1E5
:10510000AE1E394604EB0610102201F017FAA0B1CA
:10511000022D0ADD002520461034214610220135DB
:1051200001F00CFA48B1B542F5D10020F8BD1146A6
:10513000102201F003FA0028F7D10148F8BD00BFA2
:10514000020CF000F0B4002957D04C1E0519065D82
:1051500076B9294634B111F8015D661E4DB9344661
:10516000002CF8D1B3B15D1E515D39B11D4617E079
:105170000C46002B39D05D1E515D71B9531935B104
:1051800013F8011D6E1E49B93546002DF8D1231CB8
:1051900018BF01231846F0BC70471D46AC4224D806
:1051A000A54226D8611E6B1E994228BF19460029C8
:1051B0002CDB01310A440023014404E0002B08BF2A
:1051C000012388420BD011F8017D12F8016DB7421E
:1051D000F4D8F6D2002B08BF02238842F3D1A542AF
:1051E00018BF00231846F0BC704701231846F0BCD6
:1051F000704702231846F0BC7047002BCAD05D1ED2
:10520000545D002CBAD01D460C46C9E70023E6E7E2
:1052100099422DE9F04F0ED801EB03044FEA5404F4
:105220006BD3002C00F082804FF0000C2146151F3C
:10523000041F664632E003F18045013D041F00EB88
:10524000850504EB810E4FF0000A4FF0000B55F876
:1052500004CFAE454AEA0C0AF9D11AF1FF384BF1F6
:10526000FF396FEA090C99420CF0010C40D201F1B0
:105270008044151F013C02EB840205EB830352F8C6
:10528000044F93424AEA040AF9D11AF1FF364BF16E
:10529000FF37FE4306F00106C1B3041F2046002479
:1052A00000EB8101224655F8043F50F8047F9F42ED
:1052B0000CBF0123002302EA030203EA040388BFB0
:1052C00042F001022CBF1C4643F001048142EAD1A6
:1052D000D2B186F00100BCF1000F00D110408CF07B
:1052E000010C0EB904EA0C0C00EB4C00BDE8F08F89
:1052F000C3B11946151F0026D0E74FF0000A4FF042
:10530000000B4FF0000CB2E7002CE2D1BCF1000F13
:1053100004D176B160464FF0010CE5E786F001005C
:105320000024DCE760461C469C46DBE72046A4469A
:10533000D8E730463446B446D4E700BF91B310B442
:105340004B1EC418C25C62B9214633B111F8012D5D
:10535000581E3AB90346002BF8D118465DF8044BA5
:1053600070470B4614064FEAC300F7D4510600F10C
:10537000FF33F2D49406A0F10203EED4D106A0F1DB
:105380000303EAD41407A0F10403E6D45107A0F103
:105390000503E2D49207A0F10603DED407385DF8D6
:1053A000044B70470846704749B301F18042013A07
:1053B00000EB820350F8222022BB1A464B1E1FD05E
:1053C00010B452F8044D34B91946013B13D052F8C9
:1053D000044D002CF8D001F1804102395B0150F8F6
:1053E0002120A3F1200102E0013B8B4203D0002ADF
:1053F0004FEA4202F8DA18465DF8044B70470B4654
:10540000184670474B01A3F1200102E0013B8B429B
:10541000F6D0002A4FEA4202F8DAF1E778B10368E1
:10542000032B01D00748704710B5402204460649B7
:10543000083001F085F8054BA365002010BD4FF43E
:10544000720070470100F20038BE00007856341236
:10545000002837D0F0B51D4B846D9C42A1B002D01E
:105460001B4821B0F0BD0C46C16DB2FBF1F6C9007E
:10547000054606FB01F10422483002F097FD14F0C6
:10548000030712D076B1EA6D00272146684601F085
:1054900057F86946284602F0D5FD0137EA6DBE424D
:1054A0001444F2D1002021B0F0BD002EFAD02146E4
:1054B000284602F0C7FD0137EB6DBE421C44F6D111
:1054C0000020F0E74FF47200704700BF78563412A6
:1054D0000200F200002800F08A804C4B826D9A4254
:1054E00001D04B4870472DE9F041016E804600F134
:1054F0004805E0B02846C900042202F057FDD8F85C
:10550000543020A84FF4807200211CBA01F01CF81E
:10551000D8F85C20E308B3FBF2F402FB1434141B4C
:10552000102C98BFA41820ABA4F1100018442946F1
:10553000102280258DF8805001F002F82A46684636
:1055400008F1640100F0FCFFD8E917230DEB050119
:105550000DEB0300D21A00F0F3FFD8E91753ED1A50
:10556000ADB26946404602F06DFDA54242D3D8E98E
:105570000641D8E90823D8E90207D8E9046500BA4A
:105580003FBA24BA09BA12BAC8E9027036BAD8F8D2
:105590003400C8F81C402DBAD8F83040C8F81810AC
:1055A0001BBAC8F82420D8E90F12D8F83870C8F808
:1055B0001460C8F81050D8F82860D8F82C50C8F8F3
:1055C0002030D8F8443024BA00BA36BA2DBA3FBADF
:1055D00009BA12BA1BBAC8E90C040020C8E90A5675
:1055E000C8E90E17C8E9103260B0BDE8F0814FF489
:1055F0007200704720AB59196846D8F85C2000F05B
:105600009FFF6946404602F01DFDB0E77856341210
:105610000200F20060B1032A01D9052A06D101294E
:1056200002D843B11648704716487047164870476D
:105630004FF470007047022A70B5044615460E46B6
:1056400012D0052A10D04C2100F080FF052D88BF14
:105650004FF0FF320DD900200123C4E90826C4E928
:105660000B00C4E90D3370BD3EB94C21204600F05B
:105670006DFF064B53F82520EDE7054870BD00BFD0
:105680000E00F0000600F0000200F00078BE0000FE
:105690001200F000D0B1AAB191B9082B12D1536811
:1056A000102B11D113686BB110B513460122826221
:1056B0000C461030D3E9001200F042FF204610BD26
:1056C0000448704704487047044870474FF470001E
:1056D000704700BF0500F0000400F0000300F00078
:1056E00070B108B5036A013B022B05D831B1102215
:1056F00000F026FF002008BD034808BD034808BD90
:105700004FF47000704700BF0200F0000100F0008D
:1057100020B331B3C2B138B512F00F041CD1056A01
:1057200025F00405032D01D0FBB11C46134622468B
:1057300002F08CF8124B98421FD007D8B0F5710FC9
:1057400018D010D898B938BD0E4870470E4B984203
:1057500009D9013398420AD10A4838BD4FF4700084
:1057600070470A4870470A4838BD0A4838BD4FF4A8
:10577000750038BD4FF4700038BD074838BD00BF14
:105780000200F1000A00F0000400F1000800F0003F
:105790000200F0000900F0000600F00000284AD0E6
:1057A000AAB1994211D870B5059B002B38D0036A75
:1057B00023F00404032C049C0DD0002C32D0059C53
:1057C00024688C420CD2274870BD274870470029B6
:1057D000E9D0264870473CB3059C24680F2CF2D9C9
:1057E0000C0703D0012B21D9032B1FD00E463346C3
:1057F0001146049A044602F069F9054638B9236A4D
:1058000023F00403032B20D0059B1E6070BDA0F580
:105810007100052823D8DFE800F013111611110CD0
:10582000134870BD0029E1D0124870BDC36A002B37
:10583000DCD1114870BD4FF4700070470F4870BD47
:105840004FF4700070BD0E4870BD049821461022C0
:1058500000F076FE059A10231360284670BD4FF4C1
:10586000750070BD0D00F0000C00F0000800F000A5
:105870001100F0000900F0000A00F0000200F00042
:105880000600F000002867D0002965D0002B63D007
:105890002DE9F04722B1012400221C60C0F8D82075
:1058A0001A68002A55D00D460646194628461C4659
:1058B000FFF7F0FB00284DD129462068FFF7CCFB0D
:1058C000002847D12368082B48D0042B49D0A3F1E6
:1058D0000208B8FA88F84FEA5818234F2349244B96
:1058E00001223A6094460A609646C7F800E0A9682B
:1058F00019601968AA689142F7D11E4ADFF88890AA
:105900001D49DFF888E01D4F00234FF0FF3A136078
:10591000C9F800A06FF01309CEF80090C7F8008016
:105920000B60AB6803EB43031B049B09C1F8A03079
:10593000C2F800C0D6F8D830226823F07F4343EA8B
:105940000263C6F8D830226843EA0223C6F8D8308A
:1059500000E00B48BDE8F0870A4870474FF00308A5
:10596000BBE74FF00208B8E7C4B1025040B10250A3
:1059700030B102502CB1025038B102500CB102507B
:10598000310CF100350CF10008B1025000B10250A9
:105990002DE9F04F93B080460C46164606A83022FB
:1059A0000021DDE91C5905F006FC1E9B03F5C162D0
:1059B00000232A60C9F80030D8F8D43013F4407FAF
:1059C00013D02B681B68C9F80030002B00F0AE80A4
:1059D000D8F8D40010F4007040F088800390FFF7EE
:1059E00069FB039813B0BDE8F08F002E00F08880AB
:1059F0009349944A0868A1681268914240F09A80DD
:105A0000002840F0978098F8DB3004938E4E8F4D3D
:105A1000DFF848B24FF0040A0023059301270CE099
:105A20009A0700F18980DB0600F19A80A36803EBF6
:105A300043031B049B0933602F6005A8FFF7F2FAAC
:105A4000059BD907ECD54FF0FF33CBF80030804BE6
:105A50001B6806937F4B1A6807925A6808920833AE
:105A60007D4A1B680993A36811680A9103EB4303FD
:105A700051680B91203A1B049B091268336001277F
:105A800000232F6005930AE0990755D4DA0667D4FE
:105A9000A36803EB43031B049B0933602F6005A835
:105AA000FFF7C0FA059BD807EED56C4A684B4FF05C
:105AB000FF3111601A680C925A680D929A680E9222
:105AC000DA680F921A6910925A691192103B1B689A
:105AD0001E9B06A903F5C260302200F031FD302381
